:0C0A16000A08C0F9A4B0999282F8809000
:1009BC00E4F512F513E4F512F5137D2C7C01AF135D
:1009CC00AE121208000513E51370020512C3941041
:0809DC00E512942740E480DDE0
:1009E400E4FDFCC3ED9FEC9E5015E4FBFA0BBB0049
:0F09F400010AEB647D4A70F50DBD00010C80E433
:010A030022D0
:0A0A0400120A0E7F051209E47FF0CC
:070A0E00E5A0540F4FF5A015
:010A150022BE
:080800008C148D15AB07AA064C
:100808007C007D641209677E007F0ACFCDCFCECCF5
:10081800CE1209678D167C007D64AF03AE02120903
:10082800677E007F0ACFCDCFCECCCE1209678F1757
:100838007C007D64AF03AE021209677C007D0A125A
:1008480009678D18AE02AF037C007D641209677CCE
:10085800007D0A1209678F19E4F51AF51BF582F570
:1008680083AE14AF15FC7D141209678E1A8F1BE531
:100878001B451A7005F51A751B01E4F583F582C34B
:10088800E582951BE583951A50487FF0120A0E748D
:10089800082519F8E6F5807F70120A0E7F057E009C
:1008A800120A0974082518F8E6F5807FB0120A04C0
:1008B80074082517F8E6F5807FD0120A0474082515
:1008C80016F8E6F5807FE0120A0E7F051209E4A308
:0208D80080ADF1
:0108DA0022FB
:030000000208DB18
:0C08DB00787FE4F6D8FD75811B0209222D
:10096700BC000BBE0029EF8DF084FFADF022E4CC74
:10097700F875F008EF2FFFEE33FEEC33FCEE9DEC3D
:10098700984005FCEE9DFE0FD5F0E9E4CEFD22ED83
:10099700F8F5F0EE8420D21CFEADF075F008EF2FCD
:1009A700FFED33FD4007985006D5F0F222C398FDBE
:0509B7000FD5F0EA225B
:1008E7000209BCE493A3F8E493A34003F68001F262
:1008F70008DFF48029E493A3F85407240CC8C33312
:10090700C4540F4420C8834004F456800146F6DFE0
:10091700E4800B0102040810204080900A16E47E50
:10092700019360BCA3FF543F30E509541FFEE493D5
:10093700A360010ECF54C025E060A840B8E493A39C
:10094700FAE493A3F8E493A3C8C582C8CAC583CAC7
:10095700F0A3C8C582C8CAC583CADFE9DEE780BE7F
:010A220000D3
:00000001FF
